{
  "_format": "hh-sol-artifact-1",
  "contractName": "Forge",
  "sourceName": "contracts/Forge.sol",
  "abi": [
    {
      "inputs": [
        {
          "internalType": "address",
          "name": "_forging",
          "type": "address"
        }
      ],
      "stateMutability": "nonpayable",
      "type": "constructor"
    },
    {
      "inputs": [],
      "name": "_myToken",
      "outputs": [
        {
          "internalType": "contract myToken",
          "name": "",
          "type": "address"
        }
      ],
      "stateMutability": "view",
      "type": "function"
    },
    {
      "inputs": [
        {
          "internalType": "address",
          "name": "_address",
          "type": "address"
        },
        {
          "internalType": "uint256",
          "name": "id",
          "type": "uint256"
        }
      ],
      "name": "balanceOf",
      "outputs": [
        {
          "internalType": "uint256",
          "name": "",
          "type": "uint256"
        }
      ],
      "stateMutability": "view",
      "type": "function"
    },
    {
      "inputs": [
        {
          "internalType": "uint256",
          "name": "_tokenId",
          "type": "uint256"
        },
        {
          "internalType": "uint256",
          "name": "_value",
          "type": "uint256"
        }
      ],
      "name": "burn",
      "outputs": [],
      "stateMutability": "nonpayable",
      "type": "function"
    },
    {
      "inputs": [
        {
          "internalType": "uint256",
          "name": "_tokenId",
          "type": "uint256"
        }
      ],
      "name": "forgeNFT",
      "outputs": [],
      "stateMutability": "nonpayable",
      "type": "function"
    },
    {
      "inputs": [
        {
          "internalType": "uint256",
          "name": "_tokenId",
          "type": "uint256"
        }
      ],
      "name": "mintNFT",
      "outputs": [],
      "stateMutability": "nonpayable",
      "type": "function"
    },
    {
      "inputs": [
        {
          "internalType": "uint256",
          "name": "_tokenId",
          "type": "uint256"
        }
      ],
      "name": "tokenURI",
      "outputs": [
        {
          "internalType": "string",
          "name": "",
          "type": "string"
        }
      ],
      "stateMutability": "view",
      "type": "function"
    },
    {
      "inputs": [
        {
          "internalType": "uint256",
          "name": "_inputToken",
          "type": "uint256"
        },
        {
          "internalType": "uint256",
          "name": "_desiredToken",
          "type": "uint256"
        }
      ],
      "name": "tradeNFT",
      "outputs": [],
      "stateMutability": "nonpayable",
      "type": "function"
    }
  ],
  "bytecode": "0x608060405234801561001057600080fd5b50604051610bee380380610bee833981810160405281019061003291906100db565b806000806101000a81548173ffffffffffffffffffffffffffffffffffffffff021916908373ffffffffffffffffffffffffffffffffffffffff16021790555050610108565b600080fd5b600073ffffffffffffffffffffffffffffffffffffffff82169050919050565b60006100a88261007d565b9050919050565b6100b88161009d565b81146100c357600080fd5b50565b6000815190506100d5816100af565b92915050565b6000602082840312156100f1576100f0610078565b5b60006100ff848285016100c6565b91505092915050565b610ad7806101176000396000f3fe608060405234801561001057600080fd5b506004361061007c5760003560e01c8063b390c0ab1161005b578063b390c0ab146100e9578063b792370f14610105578063bac4fbc514610121578063c87b56dd1461013f5761007c565b8062fdd58e1461008157806392642744146100b15780639602694f146100cd575b600080fd5b61009b60048036038101906100969190610612565b61016f565b6040516100a89190610661565b60405180910390f35b6100cb60048036038101906100c6919061067c565b610215565b005b6100e760048036038101906100e2919061067c565b6102e8565b005b61010360048036038101906100fe91906106a9565b610378565b005b61011f600480360381019061011a91906106a9565b61040b565b005b61012961049e565b6040516101369190610748565b60405180910390f35b6101596004803603810190610154919061067c565b6104c2565b60405161016691906107f3565b60405180910390f35b60008060009054906101000a900473ffffffffffffffffffffffffffffffffffffffff1673ffffffffffffffffffffffffffffffffffffffff1662fdd58e84846040518363ffffffff1660e01b81526004016101cc929190610824565b602060405180830381865afa1580156101e9573d6000803e3d6000fd5b505050506040513d601f19601f8201168201806040525081019061020d9190610862565b905092915050565b60038110610258576040517f08c379a000000000000000000000000000000000000000000000000000000000815260040161024f906108db565b60405180910390fd5b60008054906101000a900473ffffffffffffffffffffffffffffffffffffffff1673ffffffffffffffffffffffffffffffffffffffff166340c10f1933836040518363ffffffff1660e01b81526004016102b3929190610824565b600060405180830381600087803b1580156102cd57600080fd5b505af11580156102e1573d6000803e3d6000fd5b5050505050565b60008054906101000a900473ffffffffffffffffffffffffffffffffffffffff1673ffffffffffffffffffffffffffffffffffffffff1663641cc9d433836040518363ffffffff1660e01b8152600401610343929190610824565b600060405180830381600087803b15801561035d57600080fd5b505af1158015610371573d6000803e3d6000fd5b5050505050565b60008054906101000a900473ffffffffffffffffffffffffffffffffffffffff1673ffffffffffffffffffffffffffffffffffffffff1663f5298aca3384846040518463ffffffff1660e01b81526004016103d5939291906108fb565b600060405180830381600087803b1580156103ef57600080fd5b505af1158015610403573d6000803e3d6000fd5b505050505050565b60008054906101000a900473ffffffffffffffffffffffffffffffffffffffff1673ffffffffffffffffffffffffffffffffffffffff1663b44b96e13384846040518463ffffffff1660e01b8152600401610468939291906108fb565b600060405180830381600087803b15801561048257600080fd5b505af1158015610496573d6000803e3d6000fd5b505050505050565b60008054906101000a900473ffffffffffffffffffffffffffffffffffffffff1681565b606060008054906101000a900473ffffffffffffffffffffffffffffffffffffffff1673ffffffffffffffffffffffffffffffffffffffff16630e89341c836040518263ffffffff1660e01b815260040161051d9190610661565b600060405180830381865afa15801561053a573d6000803e3d6000fd5b505050506040513d6000823e3d601f19601f820116820180604052508101906105639190610a58565b9050919050565b6000604051905090565b600080fd5b600080fd5b600073ffffffffffffffffffffffffffffffffffffffff82169050919050565b60006105a98261057e565b9050919050565b6105b98161059e565b81146105c457600080fd5b50565b6000813590506105d6816105b0565b92915050565b6000819050919050565b6105ef816105dc565b81146105fa57600080fd5b50565b60008135905061060c816105e6565b92915050565b6000806040838503121561062957610628610574565b5b6000610637858286016105c7565b9250506020610648858286016105fd565b9150509250929050565b61065b816105dc565b82525050565b60006020820190506106766000830184610652565b92915050565b60006020828403121561069257610691610574565b5b60006106a0848285016105fd565b91505092915050565b600080604083850312156106c0576106bf610574565b5b60006106ce858286016105fd565b92505060206106df858286016105fd565b9150509250929050565b6000819050919050565b600061070e6107096107048461057e565b6106e9565b61057e565b9050919050565b6000610720826106f3565b9050919050565b600061073282610715565b9050919050565b61074281610727565b82525050565b600060208201905061075d6000830184610739565b92915050565b600081519050919050565b600082825260208201905092915050565b60005b8381101561079d578082015181840152602081019050610782565b60008484015250505050565b6000601f19601f8301169050919050565b60006107c582610763565b6107cf818561076e565b93506107df81856020860161077f565b6107e8816107a9565b840191505092915050565b6000602082019050818103600083015261080d81846107ba565b905092915050565b61081e8161059e565b82525050565b60006040820190506108396000830185610815565b6108466020830184610652565b9392505050565b60008151905061085c816105e6565b92915050565b60006020828403121561087857610877610574565b5b60006108868482850161084d565b91505092915050565b7f43616e6e6f74206d696e74000000000000000000000000000000000000000000600082015250565b60006108c5600b8361076e565b91506108d08261088f565b602082019050919050565b600060208201905081810360008301526108f4816108b8565b9050919050565b60006060820190506109106000830186610815565b61091d6020830185610652565b61092a6040830184610652565b949350505050565b600080fd5b600080fd5b7f4e487b7100000000000000000000000000000000000000000000000000000000600052604160045260246000fd5b610974826107a9565b810181811067ffffffffffffffff821117156109935761099261093c565b5b80604052505050565b60006109a661056a565b90506109b2828261096b565b919050565b600067ffffffffffffffff8211156109d2576109d161093c565b5b6109db826107a9565b9050602081019050919050565b60006109fb6109f6846109b7565b61099c565b905082815260208101848484011115610a1757610a16610937565b5b610a2284828561077f565b509392505050565b600082601f830112610a3f57610a3e610932565b5b8151610a4f8482602086016109e8565b91505092915050565b600060208284031215610a6e57610a6d610574565b5b600082015167ffffffffffffffff811115610a8c57610a8b610579565b5b610a9884828501610a2a565b9150509291505056fea2646970667358221220b42398edd92070aac4ab2b2984bb4931e6213950df3d7a47e62eca233e3af84664736f6c63430008180033",
  "linkReferences": {},
  "deployedLinkReferences": {}
}